:0400000080312528FE
:100008007E1480312100901E0A280B281428200015
:10001800901E0F2810281428210034142000901254
:100028002100921C1828192823282000921C1D281A
:100038001E2823288A3118228031200092107E1031
:10004800090080312728FA30840087308500210094
:100058001200CD001200CE001200CF001200D00016
:100068001200D1001200D200FA01FB01A030840076
:100078000030850019308931B62180312030840064
:100088000130850028308931B62180317E1020006A
:100098008631EA2E21002B08BC002A08BB0029085B
:1000A800BA002808B9004130C0007030BF000030E5
:1000B800BE000030BD008A315D22803121003C083D
:1000C800CC003B08CB003A08CA003908C9003508FB
:1000D800031D6F2870289C28BF302000A80080309E
:1000E800A7000030A6000030A50021004C08200021
:1000F800AC0021004B082000AB0021004A0820007A
:10010800AA00210049082000A9008231A7228031D5
:10011800200028082100CC00200027082100CB005F
:10012800200026082100CA00200025082100C90057
:1001380023082000E000210022082000DF00210021
:1001480021082000DE00210020082000DD00210019
:100158004C082000DC0021004B082000DB002100B7
:100168004A082000DA00210049082000D90084311B
:10017800E224803120005C08AC005B08AB005A0820
:10018800AA005908A9003E30A8000530A7001E3073
:10019800A600B830A5008231A722803120002808A7
:1001A800C6002708C5002608C4002508C30040303B
:1001B800C2000030C1000030C0000030BF008E31E6
:1001C80056268031200042082100C800200041083E
:1001D8002100C700200040082100C60020003F0879
:1001E8002100C50048082000DC0021004708200045
:1001F800DB00210046082000DA0021004508200025
:10020800D900210027082000E0002100260820004E
:10021800DF00210025082000DE002100240820003E
:10022800DD008431E224803120005C082100A70031
:1002380020005B082100A60020005A082100A50024
:10024800200059082100A4004130BC00A030BB00A8
:100258000030BA000030B9002708C0002608BF00E7
:100268002508BE002408BD008B31CE238031031839
:100278003E293F29482941302100A700A030A60087
:100288000030A5000030A400210033082000DC0065
:10029800210032082000DB00210031082000DA00AC
:1002A800210030082000D9003E30A800CC30A7003B
:1002B800CC30A600CD30A50021004C082000AC00B1
:1002C80021004B082000AB0021004A082000AA00AA
:1002D800210049082000A9008231A722803120008E
:1002E8002808E0002708DF002608DE002508DD00D2
:1002F8008431E224803120005C082100C8002000FD
:100308005B082100C70020005A082100C600200011
:1003180059082100C5003E302000A800CC30A700B5
:10032800CC30A600CD30A500210027082000AC0065
:10033800210026082000AB00210025082000AA0083
:10034800210024082000A9008231A7228031200042
:100358002808DC002708DB002608DA002508D90071
:10036800210048082000E000210047082000DF00A5
:10037800210046082000DE00210045082000DD009D
:100388008431E224803120005C082100BC00200078
:100398005B082100BB0020005A082100BA00200099
:1003A80059082100B9000030C0000030BF000030FB
:1003B800BE000030BD008B31CE2380310318E52903
:1003C800E629F02900302100B3000030B2000030E7
:1003D800B1000030B0007D2A21004C082000AC009C
:1003E80021004B082000AB0021004A082000AA0089
:1003F800210049082000A9003E30A800CC30A70001
:10040800CC30A600CD30A5008231A7228031200053
:100418002808E0002708DF002608DE002508DD00A0
:10042800210027082000AC00210026082000AB008E
:10043800210025082000AA00210024082000A90086
:100448003E30A800CC30A700CC30A600CD30A500A7
:100458008231A722803120002808DC002708DB0031
:100468002608DA002508D9008431E22480312000EA
:100478005C082100C80020005B082100C70020009C
:100488005A082100C600200059082100C500480864
:100498002000DC00210047082000DB00210046087E
:1004A8002000DA00210045082000D9002100330887
:1004B8002000E000210032082000DF002100310880
:1004C8002000DE00210030082000DD008431E22415
:1004D800803120005C082100B30020005B08210067
:1004E800B20020005A082100B1002000590821005C
:1004F800B0002F08BC002E08BB002D08BA002C083D
:10050800B9003308C0003208BF003108BE00300807
:10051800BD008B31CE2380310318932A942A9D2A5B
:1005280021002F08B3002E08B2002D08B1002C08B6
:10053800B00021004C08A3004B08A2004A08A10003
:100548004908A0000800200028088039B200283592
:10055800B800A71FB02AB12AB22A381438080319DC
:10056800B62AB72AC62A380A031DBB2ABC2AC42AB7
:100578000030A8000030A7000030A6000030A50019
:10058800A717CE2A0030A8000030A7000030A60028
:100598000030A5002C088039AD002D08B2062C3596
:1005A800B300AB1FD82AD92ADA2A3314330803191F
:1005B800DE2ADF2AEE2A330A031DE32AE42AEC2A7C
:1005C8000030AC000030AB000030AA000030A900B9
:1005D800AB17F62A0030AC000030AB000030AA00A0
:1005E8000030A90033080319FA2AFB2A002B38081F
:1005F800031DFF2A002B092B0030A8000030A7009C
:100608000030A6000030A500E12C2508F2002B08D8
:100618008A313922823173082000BE007208BD0079
:100628003D08AD00AE01AF01B0013008B7002F089A
:10063800B6002E08B5002D08B4003E08AD00AE0186
:10064800AF01B0013008BC002F08BB002E08BA006B
:100658002D08B9002608F2002A088A313922823189
:1006680073082000BE007208BD003D08AD00AE0151
:10067800AF01B0012D08B4072E08B53D2F08B63DCF
:100688003008B73D3E08AD00AE01AF01B0012D08FE
:10069800B9072E08BA3D2F08BB3D3008BC3D2708D6
:1006A800F20029088A313922823173082000BE00FD
:1006B8007208BD003D08AD00AE01AF01B0012D08C4
:1006C800B4072E08B53D2F08B63D3008B73D3E08A3
:1006D800AD00AE01AF01B0012D08B9072E08BA3D33
:1006E8002F08BB3D3008BC3D0830B435B50DB60DFC
:1006F800B70D890B792B2608F20029088A3139228F
:10070800823173082000BE007208BD003D08B4079E
:100718003E08B53D0030B63DB73D2508F2002A0831
:100728008A313922823173082000BE007208BD0068
:100738003D08B4073E08B53D0030B63DB73D08302A
:10074800B435B50DB60DB70D890BA42B2508F200ED
:1007580029088A313922823173082000BE007208C4
:10076800BD003D08B4073E08B53D0030B63DB73D75
:100778002608F2002B088A313922823173082000BA
:10078800BE007208BD003D08B9073E08BA3D0030FA
:10079800BB3DBC3D2708F2002A088A313922823144
:1007A80073082000BE007208BD003D08B9073E0866
:1007B800BA3D0030BB3DBC3D2708F2002B088A310A
:1007C8003922823173082000BE007208BD003D083E
:1007D800AD003E08AE00AF01B0010830AD35AE0D3A
:1007E800AF0DB00D890BF22B2D08B9072E08BA3DB5
:1007F8002F08BB3D3008BC3D3408AD003508AE00BD
:100808003608AF003708B0001830B036AF0CAE0C61
:10081800AD0C890B092C2D08B9072E08BA3D2F08F5
:10082800BB3D3008BC3D0830B435B50DB60DB70D2D
:10083800890B182C38083307AD00AE01AE0D2D0812
:10084800823EBD00FF302E3DBE00412C0130B9353F
:10085800BA0DBB0DBC0D890B2B2CB71F342C352CB6
:10086800362C39140130B435B50DB60DB70D890BDA
:10087800372CFF30BD07FF30BE3DBB1F442C452C35
:100888002A2CB301B71F492C4A2C662CFF3034059B
:10089800AD00FF303505AE00FF303605AF007F30C4
:1008A8003705B00030082F042E042D0403195D2CE1
:1008B8005E2C612CB301B30A662C391C642C652CA0
:1008C800662C5E2C330803196A2C6B2C932C013090
:1008D800B9070030BA3D0030BB3D0030BC3D3C1C80
:1008E800762C772C932C3908AD003A08AE003B08DB
:1008F800AF003C08B0000130B100B037AF0CAE0C0F
:10090800AD0CB10B812C3008BC002F08BB002E08A1
:10091800BA002D08B9000130BD070030BE3D3E08C1
:10092800803AAD0080302D02031D9C2CFF303D0223
:10093800031C9F2CA02CAA2C7F302000BC008030E8
:10094800BB000030BA000030B900D52C20003E08AA
:10095800803AAD0080302D02031DB42C01303D02D9
:100968000318B72CB82CC32C00302000BC00003072
:10097800BB000030BA000030B900B201D52C20000D
:100988003D08B800FF30B905FF30BA057F30BB0518
:100998000030BC05381CD12CD22CD32CBB173836D0
:1009A800BC003208AD002D08BC043C08A8003B0878
:1009B800A7003A08A6003908A500080020005C082E
:1009C8008039E9005C35EB00DB1FEB2CEC2CED2CBF
:1009D8006B146B080319F12CF22C022D6B0A031D02
:1009E800F62CF72CFF2C0030DC000030DB00003048
:1009F800DA000030D900DB17DC010A2D0030DC00FA
:100A08000030DB000030DA000030D900600880399F
:100A1800EA006A0869060319122D132D142D6917A7
:100A28006035EA00DF1F192D1A2D1B2D6A146A087C
:100A380003191F2D202D302D6A0A031D242D252D65
:100A48002D2D0030E0000030DF000030DE000030E7
:100A5800DD00DF17E001382D0030E0000030DF0056
:100A68000030DE000030DD006B086A0203183D2DFF
:100A78003E2D642D691F412D422D462D8030E10009
:100A88006108E9066B08EC006A08EB006C08EA00EC
:100A98005908EC005D08D9006C08DD005A08EC0024
:100AA8005E08DA006C08DE005B08EC005F08DB001B
:100AB8006C08DF005C08EC006008DC006C08E000F3
:100AC800EC016A08E100E2016208E4006B086102D7
:100AD800E300031CE4036408803AE5008030650203
:100AE800031D782D1A306302031C7B2D7C2DAE2D3F
:100AF80020005C085B045A045904031D842D862DCC
:100B08000130872D0030EC000030DC000030DB00C5
:100B18000030DA000030D9006A08EB00B52D6C1CF3
:100B2800962D972D9B2D6C360138EC009D2D0310CA
:100B3800EC0C591CA02DA12DA22DEC170130E100C1
:100B4800DC37DB0CDA0CD90CE10BA42D0130E10009
:100B58006108EB0720006A086B02031CB42DB52D51
:100B6800932D691BB82DB92DEF2D6B08031DBD2DD5
:100B7800BE2DC72D0030DC000030DB000030DA006D
:100B88000030D900E92E5D08D9075E08DA3D5F0814
:100B9800DB3D6008DC3D5C1CD22DD32D7B2E6C1C0C
:100BA800D62DD72DDB2D6C360138EC00DD2D03104A
:100BB800EC0C591CE02DE12DE22DEC170130E10081
:100BC800DC37DB0CDA0CD90CE10BE42D0130E10049
:100BD8006108EB077B2E5C08803AE1006008803AE8
:100BE8006102031D012E5F085B02031D012E5E08D2
:100BF8005A02031D012E5D0859020318042E052E02
:100C08003D2EFF30E100FF30E200FF30E300FF300F
:100C1800E40059085D02E5005A085E3BE6005B08FF
:100C28005F3BE7005C08603BE8006508E107660891
:100C3800E23D6708E33D6808E43D6408DC006308BA
:100C4800DB006208DA006108D9008030E100610841
:100C5800E906EC09EC0A6C08031D332E342E452EE8
:100C68000130D9070030DA3D0030DB3D0030DC3D93
:100C7800452E5D08D9025E08DA3B5F08DB3B600859
:100C8800DC3B5C085B045A045904031D4C2E4D2EB2
:100C9800772E6C08031D512E522E772E0030DC0063
:100CA8000030DB000030DA000030D900E92E0130D6
:100CB800D935DA0DDB0DDC0D890B5C2EEC1F652EAA
:100CC800662E672E59146C1C6A2E6B2E6E2E03141A
:100CD800EC0D702E0310EC0D6B080319742E752E95
:100CE800772E0130EB02DB1F7A2E7B2E5B2EEA017A
:100CF800EC1F7F2E802E8E2E6C087F390319852ECF
:100D0800862E892EEA01EA0A8E2E591C8C2E8D2EEB
:100D18008E2E862E6A080319922E932EC02E01302D
:100D2800D9070030DA3D0030DB3D0030DC3D5C1C8B
:100D38009E2E9F2EC02E5908E1005A08E2005B083B
:100D4800E3005C08E4000130E500E437E30CE20C62
:100D5800E10CE50BA92E6408DC006308DB006208DF
:100D6800DA006108D9006B0A0319BB2EBC2EC02E0D
:100D78000130E1006108EB076B0A0319C42EC52E88
:100D8800CA2E6B08031DC92ECA2ED82E0030DC00CF
:100D98000030DB000030DA000030D9006B08031D9A
:100DA800D62ED72ED82EE9016B1CDB2EDC2EDE2E9C
:100DB800DB17E22E7F30E1006108DB056B36DC00D3
:100DC800E91FE72EE82EE92EDC1708008B3158239F
:100DD800863100302000A200A3008931CD21863160
:100DE800052F341CF82EF92E052F8931F82186316C
:100DF8007308F9007208F8008931DF218631210073
:100E080034102100380803190A2F0B2FF52E8D31C5
:100E1800A725863121003C08AB003B08AA003A0808
:100E2800A9003908A8002B08BC002A08BB0029081B
:100E3800BA002808B9008C315924863121002B08C2
:100E4800BC002A08BB002908BA002808B9004130AC
:100E5800C000C030BF000030BE000030BD008B3184
:100E6800CE238631031C392F3A2F492F22008E15A5
:100E78008D130E132100B5014430AF007F30AE0052
:100E8800C030AD000030AC00582F22008E118D17F5
:100E98000E172100B501B50A4330AF008030AE000F
:100EA8000030AD000030AC002100341C5C2F5D2FF9
:100EB800582F8931F82186317308F9007208F80033
:100EC8008931DF218631210034108D31A725863103
:100ED80021003C08AB003B08AA003A08A9003908E1
:100EE800A8002B08BC002A08BB002908BA0028085B
:100EF800B9008C315924863180314E208631210049
:100F08003308F5003208F4003108F3003008F20025
:100F18008A31E722863173082000A3007208A200F4
:100F28008931CD218631582F803125282000A8010C
:100F3800A31F9F2FA02FA72FA209A309A20A031955
:100F4800A30AA801A80AA51FAA2FAB2FB42FA4098A
:100F5800A509A40A0319A50A0130A6002608A806AF
:100F6800A901AA01220823040319BB2FBC2FEB2FC8
:100F7800A701A70AC82F0130A235A30D890BC02FDE
:100F88000130A6002608A707A31FCB2FCC2FBF2F01
:100F98000130A935AA0D890BCD2F23082502031D81
:100FA800D72F22082402031CDA2FDB2FE02F220878
:100FB800A4022308A53B29140130A336A20C890BEF
:100FC800E12F0130A702031DEA2FEB2FCC2F2808B1
:100FD8000319EF2FF02FF52FA909AA09A90A031958
:100FE800AA0A2A08A3002908A2000800003400342D
:080FF800A03441341034203410
:10136C00640080010131890BB729003424009101FC
:10137C00141CC129C229BE2911080800F0007008EC
:10138C0024009100141CCB29CC29C829080020006A
:10139C002208FC392C00970020002308A500220805
:1013AC00A400A536A40CA536A40C24082C00980087
:1013BC0008007B35203E8600013087007808C03F4E
:1013CC007908C13F01302000A0002008FB07133032
:1013DC007B06031DF229F329F729FB012100B80133
:1013EC00B80A080022008D128931BC218931F40021
:1013FC00F5017408F6007508F7000830F635F70D9E
:10140C00890B042A8931BC218931F400F501740857
:10141C00F6047508F70422008D167708F300760899
:10142C00F2000800210034191C2A1D2A222A510816
:10143C008931C4218A31262A52088931C4218A3142
:10144C0022008E168E122100340CF100710C013921
:10145C00F1000130F106F10DF10D34087106FB3984
:10146C007106B40008002000A400A001A1017208BC
:10147C00F400F5017408A2007508A300241C472A87
:10148C00482A4C2A2208A0072308A13D0130A23586
:10149C00A30D890B4D2A0310A40C2408031D572AF5
:1014AC00582A442A2108F3002008F2000800803052
:1014BC002100BC0640082000DC0021003F08200071
:1014CC00DB0021003E082000DA0021003D0820004E
:1014DC00D90021003C082000E00021003B0820003E
:1014EC00DF0021003A082000DE002100390820002E
:1014FC00DD008431E2248A3120005C082100BC002C
:10150C0020005B082100BB0020005A082100BA0013
:10151C00200059082100B90008002000B101AE1FBD
:10152C00982A992AA02AAD09AE09AD0A0319AE0A68
:10153C00B101B10AAC1FA32AA42AA92AAB09AC0990
:10154C00AB0A0319AC0A2B082C040319AE2AAF2AD8
:10155C00D82AB001B00ABB2A0130AB35AC0D890BCF
:10156C00B32A0130AF002F08B007AC1FBE2ABF2A28
:10157C00B22A2C082E02031DC52A2B082D02031C8F
:10158C00C82AC92ACD2A2B08AD022C08AE3B013043
:10159C00AC36AB0C890BCE2A0130B002031DD72A16
:1015AC00D82ABF2A31080319DC2ADD2AE22AAD0920
:1015BC00AE09AD0A0319AE0A2E08AC002D08AB001B
:1015CC0008000310740D750D2000A1002108031DE7
:1015DC00F02AF12AFA2A0030F5000030F40000302D
:1015EC00F3000030F200572B7208F6007308F70076
:1015FC007408F8007508F9001F30F936F80CF70C70
:10160C00F60C890B032B7608A000F417FF30F205BB
:10161C00FF30F305FF30F4050030F5059630A102DC
:10162C00A11F192B1A2B322B2108803A973E031835
:10163C00202B212B222BF12A0130F536F40CF30C44
:10164C00F20C890B232B0130F6007608A107031D41
:10165C00302B312B222B472B20302102031C372B14
:10166C00382B422BF12A0130F235F30DF40DF50D28
:10167C00890B3A2B0130A1022108031D462B472B65
:10168C00392B200803194B2B4C2B572BF209F30940
:10169C00F409F509F20A0319F30A0319F40A0319F8
:1016AC00F50A080060303200990006309F002100D6
:1016BC008C018D018E018D128E128E118D130E13D5
:1016CC000E100D170C1222008C018D018E012300BF
:1016DC008C018D018E01200017120F309704180811
:1016EC001F394038980018121808F039073898003C
:1016FC009717280017088739383897001708FC39CE
:10170C0002389700FF309600171521008C162C001C
:10171C001912FF3020009E0080302C009800970199
:10172C002000911087309F05FC309F051F15911CE0
:10173C00A02BA12B9D2B911021008C1202303D006F
:10174C00A7002C00991723009E171E131E129E1122
:10175C001E119D171F1219309B0014303D00A00064
:10176C0023009E1624001512F030950594171417BB
:10177C0018303D0094001930A4000E303C00A1003C
:10178C00240095162100901692140B178B17080045
:10179C00003021003905C10000303A05C20080300C
:1017AC003B05C3007F303C05C4004408430442049D
:1017BC004104031DE22BE32BEB2B0030BC0000306B
:1017CC00BB000030BA000030B90000303D05C1004C
:1017DC0000303E05C20080303F05C3007F3040051D
:1017EC00C4004408430442044104031DFE2BFF2B98
:1017FC00072C0030C0000030BF000030BE000030AD
:10180C00BD00BC1F0A2C0B2C232C0030C100003057
:10181C00C2000030C3008030C4003908C1023A084D
:10182C00C23B3B08C33B3C08C43B4408BC004308D8
:10183C00BB004208BA004108B900C01F262C272C57
:10184C003F2C0030C1000030C2000030C30080309B
:10185C00C4003D08C1023E08C23B3F08C33B4008E0
:10186C00C43B4408C0004308BF004208BE00410806
:10187C00BD008030BC068030C00640083C02031D11
:10188C00512C3F083B02031D512C3E083A02031D0C
:10189C00512C3D0839020318542C552C572C03108D
:1018AC00582C0314080042302000DC000030DB0010
:1018BC000030DA000030D9004030C200A030C10046
:1018CC000030C0000030BF004130A8001030A7002D
:1018DC000030A6000030A50021003C082000AC0020
:1018EC0021003B082000AB0021003A082000AA0090
:1018FC00210039082000A9008231A7228C31200058
:10190C002808C6002708C5002608C4002508C300FF
:10191C008E3156268C3120004208E0004108DF0051
:10192C004008DE003F08DD008431E2248C312000C9
:10193C005C082100C00020005B082100BF002000D3
:10194C005A082100BE00200059082100BD000A30B1
:10195C002000AB000030AC0021004008F5003F082F
:10196C00F4003E08F3003D08F2008A31E7228C3186
:10197C0072082000ED00EE016D08AD006E08AE009F
:10198C008A3193228C3120002B0820382100D20080
:10199C000A302000AB000030AC000A30A20000304E
:1019AC00A30021004008F5003F08F4003E08F300B6
:1019BC003D08F2008A31E7228C3172082000ED00DC
:1019CC00EE016D08A4006E08A50087319A278C31B2
:1019DC0020002308AE002208AD008A3193228C31FE
:1019EC0020002B0810382100D10008002000A00096
:1019FC0020080319022D032D172DF51F062D072D79
:101A0C00172D7209A2007309A3007409A4007509AB
:101A1C00A500A20A0319A30A0319A40A0319A50A0B
:101A2C001F2D7508A5007408A4007308A300720884
:101A3C00A2007508740473047204031D262D272D4F
:101A4C00302D0030F5000030F4000030F300003091
:101A5C00F200A62D9630A1003E2D0130F60076083E
:101A6C00A1070130A536A40CA30CA20C890B382DB0
:101A7C00FE302505031D432D442D332D582D0130EB
:101A8C00F6007608A1070130A2070030A33D003014
:101A9C00A43D0030A53D0130A536A40CA30CA20C2E
:101AAC00890B522DFF302505031D5D2D5E2D452D17
:101ABC00682D0130A1020130A235A30DA40DA50D96
:101ACC00890B622DA41B6B2D6C2D722D0230210203
:101ADC000318712D722D5F2D2118752D762D7E2DED
:101AEC00FF30A205FF30A3057F30A405FF30A5050C
:101AFC000310A10C2108F600F701F801F9011830C8
:101B0C00F635F70DF80DF90D890B862D7608A20424
:101B1C007708A3047808A4047908A50420080319FD
:101B2C00982D992D9E2DF51F9C2D9D2D9E2DA51725
:101B3C002508F5002408F4002308F3002208F2001D
:101B4C00080000302100C4000030C3000030C20087
:101B5C000030C100C5014535203E860001308700AC
:101B6C00403F2000ED00413FEE006D08F2006E0892
:101B7C00F300F401F50100308C31FC248D31750833
:101B8C002000DC007408DB007308DA007208D9004E
:101B9C00210044082000E000210043082000DF0061
:101BAC00210042082000DE00210041082000DD0059
:101BBC008431E2248D3120005C082100C400200017
:101BCC005B082100C30020005A082100C20020003D
:101BDC0059082100C10001302000ED006D082100E2
:101BEC00C50714304502031CFC2DFD2DB12D4130D1
:101BFC002000C200A030C1000030C0000030BF0087
:101C0C00210044082000C600210043082000C50024
:101C1C00210042082000C400210041082000C3001C
:101C2C008E3156268D31200042082100C000200044
:101C3C0041082100BF00200040082100BE00200008
:101C4C003F082100BD0041302000C2008030C1009F
:101C5C000030C0000030BF00210040082000C6004A
:101C6C0021003F082000C50021003E082000C400D0
:101C7C0021003D082000C3008E3156268D312000F6
:101C8C0042082100BC00200041082100BB002000BC
:101C9C0040082100BA0020003F082100B9000800CC
:101CAC00200046088039D0004635D700C51F5F2E6E
:101CBC00602E612E571457080319652E662E762E4A
:101CCC00570A031D6A2E6B2E732E0030C60000308F
:101CDC00C5000030C4000030C300C517C6017E2EFD
:101CEC000030C6000030C5000030C4000030C30016
:101CFC0042088039C7004708D0064235D800C11FBA
:101D0C00882E892E8A2E5814580803198E2E8F2E41
:101D1C009F2E580A031D932E942E9C2E0030C20029
:101D2C000030C1000030C0000030BF00C117C2013C
:101D3C00A72E0030C2000030C1000030C0000030BF
:101D4C00BF004208410440043F04031DAE2EAF2ED9
:101D5C00C82E0030C6000030C5000030C400003072
:101D6C00C3008030C5047F30C6045008C700470844
:101D7C00C6044608C2004508C1004408C000430818
:101D8C00BF00FF2F5708031DCC2ECD2ED62E0030B2
:101D9C00C2000030C1000030C0000030BF00FF2F77
:101DAC005708C700C8014808CA0058084702C900AC
:101DBC00031CCA0349087F3ED10000304A3DD200C3
:101DCC004608CF004508CE004408CD004308CC009F
:101DDC000030C6000030C5000030C4000030C30025
:101DEC000030D6000030D5000030D4000030D300D5
:101DFC00D8013E2F58080319042F052F1F2F01302F
:101E0C00CC35CD0DCE0DCF0D890B062F0130C33542
:101E1C00C40DC50DC60D890B0D2FD61F162F172FF0
:101E2C00182F43140130D335D40DD50DD60D890B95
:101E3C00192F42084F02031D2D2F41084E02031D7E
:101E4C002D2F40084D02031D2D2F3F084C02031C63
:101E5C00302F312F3A2F56173F08CC024008CD3B7C
:101E6C004108CE3B4208CF3B0130C7004708D8079A
:101E7C001A305802031C432F442F002F4F084E04D6
:101E8C004D044C0403194B2F4C2F652F5314652F05
:101E9C000130C335C40DC50DC60D890B4F2FD61F90
:101EAC00582F592F5A2F43140130D335D40DD50D3B
:101EBC00D60D890B5B2FFF30D107FF30D23DC51FEC
:101ECC00682F692F4E2FD801D61F6D2F6E2F8A2F9A
:101EDC00FF305305C700FF305405C800FF305505CF
:101EEC00C9007F305605CA004A0849044804470413
:101EFC000319812F822F852FD801D80A8A2F431CD2
:101F0C00882F892F8A2F822F580803198E2F8F2FF5
:101F1C00B72F0130C3070030C43D0030C53D003041
:101F2C00C63D461C9A2F9B2FB72F4308C700440869
:101F3C00C8004508C9004608CA000130CB00CA37A2
:101F4C00C90CC80CC70CCB0BA52F4A08C6004908F6
:101F5C00C5004808C4004708C3000130D107003051
:101F6C00D23D5208803AC70080304702031DC02F73
:101F7C00FF305102031CC32FC42FD12FFF30200080
:101F8C00D1000030D2000030C6000030C500003057
:101F9C00C4000030C30020005208803AC7008030D3
:101FAC004702031DDB2F013051020318DE2FDF2FF8
:101FBC00EB2F2000D101D2010030C6000030C5004B
:101FCC000030C4000030C300D00120005108D700FD
:101FDC00571CF12FF22FF42FC517F82F7F30C700A5
:101FEC004708C5055736C6005008C7004708C60441
:041FFC00BF2E0800EC
:020000040001F9
:08000E00EC3F333FFF1FFF3FF1
:00000001FF
