:0400000080312528FE
:100008007E1480312100901E0A280B281428200015
:10001800901E0F2810281428210051142000901237
:100028002100921C1828192823282000921C1D281A
:100038001E2823288931C3218031200092107E1088
:100048000900803127286430840089308500210028
:100058001200D6001200D7001200D8001200D900F2
:100068001200DA001200DB00FA01FB01C130840043
:1000780000308500153089315E21803120308400C0
:1000880001308500283089315E2180317E102000C2
:100098008C31732C21004C08A3004B08A2004A089D
:1000A800A1004908A0004130A700C030A6000030D8
:1000B800A5000030A4008A310822803121002308DD
:1000C800B3002208B2002108B1002008B00054088B
:1000D800031D6F287028BF28520803197428752833
:1000E80097283308F5003208F4003108F300300887
:1000F800F2000030F9000030F8000030F70000305E
:10010800F6008731AF278031031C8B288C2897286D
:100118002100D401D40A0030C8000030C7000030E4
:10012800C6000030C50021005208031D9C289D28E8
:10013800BF283308F5003208F4003108F30030080E
:10014800F2000030F9000030F8000030F70000300D
:10015800F6008731AF2780310318B328B428BF28A9
:100168002100D401D40A0030C8000030C700003094
:10017800C6000030C50021005208031DC428C52848
:10018800F128BF302000A8008030A7000030A6006A
:100198000030A500210033082000AC0021003208FF
:1001A8002000AB00210031082000AA0021003008FF
:1001B8002000A9008231BD228031200028082100BA
:1001C800B300200027082100B200200026082100E3
:1001D800B100200025082100B00044082000E000FC
:1001E800210043082000DF00210042082000DE0033
:1001F800210041082000DD00210033082000DC0038
:10020800210032082000DB00210031082000DA003C
:10021800210030082000D9008431F82480312000E2
:100228005C08AC005B08AB005A08AA005908A90092
:100238003E30A8000530A7001E30A600B830A50043
:100248008231BD22803120002808C6002708C50059
:100258002608C4002508C3004030C2000030C10091
:100268000030C0000030BF008E315626803120009B
:1002780042082100AF00200041082100AE00200004
:1002880040082100AD0020003F082100AC002F08E5
:100298002000DC0021002E082000DB0021002D08B2
:1002A8002000DA0021002C082000D900210048088D
:1002B8002000E000210047082000DF002100460858
:1002C8002000DE00210045082000DD008431F824EC
:1002D800803120005C082100C80020005B08210054
:1002E800C70020005A082100C60020005908210034
:1002F800C5004030A300A030A2000030A1000030AB
:10030800A0004808A7004708A6004608A500450819
:10031800A4008B31E82380310318932994299D295F
:1003280040302100C800A030C7000030C6000030AF
:10033800C500210033082000AC002100320820004D
:10034800AB00210031082000AA002100300820005D
:10035800A9003E30A800CC30A700CC30A600CD3094
:10036800A5008231BD22803120002808DC00270842
:10037800DB002608DA002508D90021004F08F20022
:100388005008F300F401F50100308D31AB258031C0
:1003980075082000E0007408DF007308DE007208AA
:1003A800DD008431F824803120005C082100AF0092
:1003B80020005B082100AE0020005A082100AD0093
:1003C800200059082100AC003C302000A800CC30A7
:1003D800A700CC30A600CD30A50021004808200099
:1003E800AC00210047082000AB002100460820008F
:1003F800AA00210045082000A9008231BD228031D1
:1004080020002808DC002708DB002608DA00250879
:10041800D90021002F082000E00021002E0820002C
:10042800DF0021002D082000DE0021002C0820001C
:10043800DD008431F824803120005C082100A3000D
:1004480020005B082100A20020005A082100A1001A
:10045800200059082100A0000030A7000030A600A5
:100468000030A5000030A4008B31E8238031031848
:100478003E2A3F2A432A2100CF01D001A62A210083
:1004880033082000AC00210032082000AB00210016
:1004980031082000AA00210030082000A9003E30C1
:1004A800A800CC30A700CC30A600CD30A500823102
:1004B800BD22803120002808E0002708DF00260838
:1004C800DE002508DD00210048082000AC002100DE
:1004D80047082000AB00210046082000AA002100A0
:1004E80045082000A9003C30A800CC30A700CC303B
:1004F800A600CD30A5008231BD2280312000280819
:10050800DC002708DB002608DA002508D90084313A
:10051800F824803120005C082100A30020005B083B
:100528002100A20020005A082100A100200059083B
:100538002100A0008B316C23803121002008CF07D7
:100548002108D03D50084E02031DAC2A4F084D0229
:100558000318AF2AB02AB42A4E08D0004D08CF009D
:100568003308C4003208C3003108C2003008C10093
:100578000800200028088039B2002835B800A71FD5
:10058800C62AC72AC82A381438080319CC2ACD2AFB
:10059800DC2A380A031DD12AD22ADA2A0030A80018
:1005A8000030A7000030A6000030A500A717E42AF5
:1005B8000030A8000030A7000030A6000030A500D9
:1005C8002C088039AD002D08B2062C35B300AB1FBE
:1005D800EE2AEF2AF02A331433080319F42AF52AED
:1005E800042B330A031DF92AFA2A022B0030AC0027
:1005F8000030AB000030AA000030A900AB170C2B6C
:100608000030AC000030AB000030AA000030A90078
:1006180033080319102B112B162B3808031D152B23
:10062800162B1F2B0030A8000030A7000030A600B2
:100638000030A500F72C2508F2002B088931E421A9
:10064800823173082000BE007208BD003D08AD006D
:10065800AE01AF01B0013008B7002F08B6002E0870
:10066800B5002D08B4003E08AD00AE01AF01B001E1
:100678003008BC002F08BB002E08BA002D08B900AE
:100688002608F2002A088931E42182317308200003
:10069800BE007208BD003D08AD00AE01AF01B0015B
:1006A8002D08B4072E08B53D2F08B63D3008B73DD4
:1006B8003E08AD00AE01AF01B0012D08B9072E0804
:1006C800BA3D2F08BB3D3008BC3D2708F200290879
:1006D8008931E421823173082000BE007208BD0010
:1006E8003D08AD00AE01AF01B0012D08B4072E08DA
:1006F800B53D2F08B63D3008B73D3E08AD00AE0108
:10070800AF01B0012D08B9072E08BA3D2F08BB3D2F
:100718003008BC3D0830B435B50DB60DB70D890BA2
:100728008F2B2608F20029088931E42182317308C9
:100738002000BE007208BD003D08B4073E08B53D64
:100748000030B63DB73D2508F2002A088931E4217A
:10075800823173082000BE007208BD003D08B4074E
:100768003E08B53D0030B63DB73D0830B435B50D4F
:10077800B60DB70D890BBA2B2508F2002908893167
:10078800E421823173082000BE007208BD003D08D4
:10079800B4073E08B53D0030B63DB73D2608F20027
:1007A8002B088931E421823173082000BE007208C9
:1007B800BD003D08B9073E08BA3D0030BB3DBC3D11
:1007C8002708F2002A088931E421823173082000C1
:1007D800BE007208BD003D08B9073E08BA3D0030AA
:1007E800BB3DBC3D2708F2002B088931E42182314A
:1007F80073082000BE007208BD003D08AD003E0829
:10080800AE00AF01B0010830AD35AE0DAF0DB00D83
:10081800890B082C2D08B9072E08BA3D2F08BB3DB7
:100828003008BC3D3408AD003508AE003608AF00CE
:100838003708B0001830B036AF0CAE0CAD0C890BD1
:100848001F2C2D08B9072E08BA3D2F08BB3D3008CC
:10085800BC3D0830B435B50DB60DB70D890B2E2C3F
:1008680038083307AD00AE01AE0D2D08823EBD003D
:10087800FF302E3DBE00572C0130B935BA0DBB0DE7
:10088800BC0D890B412CB71F4A2C4B2C4C2C39140E
:100898000130B435B50DB60DB70D890B4D2CFF30B1
:1008A800BD07FF30BE3DBB1F5A2C5B2C402CB3014B
:1008B800B71F5F2C602C7C2CFF303405AD00FF3057
:1008C8003505AE00FF303605AF007F303705B00084
:1008D80030082F042E042D040319732C742C772C44
:1008E800B301B30A7C2C391C7A2C7B2C7C2C742CFD
:1008F80033080319802C812CA92C0130B90700304A
:10090800BA3D0030BB3D0030BC3D3C1C8C2C8D2CCE
:10091800A92C3908AD003A08AE003B08AF003C08E6
:10092800B0000130B100B037AF0CAE0CAD0CB10B5C
:10093800972C3008BC002F08BB002E08BA002D08E1
:10094800B9000130BD070030BE3D3E08803AAD0019
:1009580080302D02031DB22CFF303D02031CB52C44
:10096800B62CC02C7F302000BC008030BB0000308B
:10097800BA000030B900EB2C20003E08803AAD00E8
:1009880080302D02031DCA2C01303D020318CD2CE6
:10099800CE2CD92C00302000BC000030BB00003029
:1009A800BA000030B900B201EB2C20003D08B800B5
:1009B800FF30B905FF30BA057F30BB050030BC05F4
:1009C800381CE72CE82CE92CBB173836BC00320859
:1009D800AD002D08BC043C08A8003B08A7003A0855
:1009E800A6003908A500080020005C088039E90045
:1009F8005C35EB00DB1F012D022D032D6B146B08FA
:100A08000319072D082D182D6B0A031D0C2D0D2D0C
:100A1800152D0030DC000030DB000030DA0000303B
:100A2800D900DB17DC01202D0030DC000030DB00B2
:100A38000030DA000030D90060088039EA006A081E
:100A480069060319282D292D2A2D69176035EA0012
:100A5800DF1F2F2D302D312D6A146A080319352D0B
:100A6800362D462D6A0A031D3A2D3B2D432D0030A5
:100A7800E0000030DF000030DE000030DD00DF176E
:100A8800E0014E2D0030E0000030DF000030DE00D5
:100A98000030DD006B086A020318532D542D7A2D9F
:100AA800691F572D582D5C2D8030E1006108E9063B
:100AB8006B08EC006A08EB006C08EA005908EC00C7
:100AC8005D08D9006C08DD005A08EC005E08DA0001
:100AD8006C08DE005B08EC005F08DB006C08DF00D8
:100AE8005C08EC006008DC006C08E000EC016A08B7
:100AF800E100E2016208E4006B086102E300031C04
:100B0800E4036408803AE50080306502031D8E2DF9
:100B18001A306302031C912D922DC42D20005C080D
:100B28005B045A045904031D9A2D9C2D01309D2DF8
:100B38000030EC000030DC000030DB000030DA0070
:100B48000030D9006A08EB00CB2D6C1CAC2DAD2D04
:100B5800B12D6C360138EC00B32D0310EC0C591C88
:100B6800B62DB72DB82DEC170130E100DC37DB0CC2
:100B7800DA0CD90CE10BBA2D0130E1006108EB0762
:100B880020006A086B02031CCA2DCB2DA92D691BF6
:100B9800CE2DCF2D052E6B08031DD32DD42DDD2D85
:100BA8000030DC000030DB000030DA000030D90013
:100BB800FF2E5D08D9075E08DA3D5F08DB3D600857
:100BC800DC3D5C1CE82DE92D912E6C1CEC2DED2DE7
:100BD800F12D6C360138EC00F32D0310EC0C591C88
:100BE800F62DF72DF82DEC170130E100DC37DB0C82
:100BF800DA0CD90CE10BFA2D0130E1006108EB07A2
:100C0800912E5C08803AE1006008803A6102031D79
:100C1800172E5F085B02031D172E5E085A02031D7C
:100C2800172E5D08590203181A2E1B2E532EFF305B
:100C3800E100FF30E200FF30E300FF30E400590834
:100C48005D02E5005A085E3BE6005B085F3BE70093
:100C58005C08603BE8006508E1076608E23D670854
:100C6800E33D6808E43D6408DC006308DB006208D3
:100C7800DA006108D9008030E1006108E906EC0972
:100C8800EC0A6C08031D492E4A2E5B2E0130D90749
:100C98000030DA3D0030DB3D0030DC3D5B2E5D0886
:100CA800D9025E08DA3B5F08DB3B6008DC3B5C0886
:100CB8005B045A045904031D622E632E8D2E6C08A2
:100CC800031D672E682E8D2E0030DC000030DB00FF
:100CD8000030DA000030D900FF2E0130D935DA0DA6
:100CE800DB0DDC0D890B722EEC1F7B2E7C2E7D2EEE
:100CF80059146C1C802E812E842E0314EC0D862E24
:100D08000310EC0D6B0803198A2E8B2E8D2E0130E3
:100D1800EB02DB1F902E912E712EEA01EC1F952E0F
:100D2800962EA42E6C087F3903199B2E9C2E9F2E7D
:100D3800EA01EA0AA42E591CA22EA32EA42E9C2E48
:100D48006A080319A82EA92ED62E0130D90700301B
:100D5800DA3D0030DB3D0030DC3D5C1CB42EB52EA6
:100D6800D62E5908E1005A08E2005B08E3005C0847
:100D7800E4000130E500E437E30CE20CE10CE50B9C
:100D8800BF2E6408DC006308DB006208DA00610833
:100D9800D9006B0A0319D12ED22ED62E0130E100CC
:100DA8006108EB076B0A0319DA2EDB2EE02E6B08BD
:100DB800031DDF2EE02EEE2E0030DC000030DB00BD
:100DC8000030DA000030D9006B08031DEC2EED2E40
:100DD800EE2EE9016B1CF12EF22EF42EDB17F82E05
:100DE8007F30E1006108DB056B36DC00E91FFD2E72
:100DF800FE2EFF2EDC17080000302100AB0000306B
:100E0800AA000030A9000030A800AC012C35203E13
:100E1800860001308700403F2000ED00413FEE0092
:100E28006D08F2006E08F300F401F50100308D3111
:100E3800AB25873175082000DC007408DB007308D7
:100E4800DA007208D90021002B082000E0002100F8
:100E58002A082000DF00210029082000DE002100E8
:100E680028082000DD008431F824873120005C0840
:100E78002100AB0020005B082100AA0020005A08CE
:100E88002100A900200059082100A80001302000F5
:100E9800ED006D082100AC0714302C02031C552FFF
:100EA800562F0A2F41302000C200A030C100003068
:100EB800C0000030BF0021002B082000C600210020
:100EC8002A082000C500210029082000C4002100AC
:100ED80028082000C3008E3156268731200042089A
:100EE8002100A700200041082100A600200040089A
:100EF8002100A50020003F082100A4004130200067
:100F0800C2008030C1000030C0000030BF002100A6
:100F180027082000C600210026082000C50021005F
:100F280025082000C400210024082000C3008E31B9
:100F380056268731200042082100A30020004108DE
:100F48002100A200200040082100A10020003F0845
:100F58002100A0000800003072052000A000003029
:100F68007305A10080307405A2007F307505A300C9
:100F78002308220421042004031DC32FC42FCC2FCF
:100F88000030F5000030F4000030F3000030F200CB
:100F980000307605A00000307705A1008030780584
:100FA800A2007F307905A30023082204210420042D
:100FB800031DDF2FE02FE82F0030F9000030F80084
:100FC8000030F7000030F60079087506031DF62F8B
:100FD80078087406031DF62F77087306031DF62F8D
:100FE800760872060319F92FFA2FFC2F0310FD2F2C
:040FF80003140800D6
:1012BC00640080010131890B5F2900340034003453
:1012CC00A03440341034203424009101141C6F29B4
:1012DC0070296C2911080800F00070082400910096
:1012EC00141C79297A29762908007208FC392C00FB
:1012FC0097007308F5007208F400F536F40CF53617
:10130C00F40C7408980008007B35203E86000130F0
:10131C0087007808C03F7908C13F01302000A00049
:10132C002008FB0713307B06031D9D299E29A2294B
:10133C00FB012100D501D50A080022008D1289314C
:10134C006A218931F400F5017408F6007508F7007C
:10135C000830F635F70D890BAF2989316A218931AF
:10136C00F400F5017408F6047508F70422008D16D4
:10137C007708F3007608F200080021005119C729FC
:10138C00C829CD295A08893172218931D1295B08A4
:10139C0089317221893122008E168E122100510C56
:1013AC00F100710C0139F1000130F106F10DF10D74
:1013BC0051087106FB397106D10008002000A40009
:1013CC00A001A1017208F400F5017408A2007508CF
:1013DC00A300241CF229F329F7292208A0072308CB
:1013EC00A13D0130A235A30D890BF8290310A40CE3
:1013FC002408031D022A032AEF292108F3002008E0
:10140C00F200080080302100A30627082000DC0031
:10141C00210026082000DB00210025082000DA002E
:10142C00210024082000D900210023082000E0001E
:10143C00210022082000DF00210021082000DE000E
:10144C00210020082000DD008431F8248A3120009E
:10145C005C082100A30020005B082100A2002000F2
:10146C005A082100A100200059082100A000080002
:10147C002100B601B31F432A442A4B2AB209B309EF
:10148C00B20A0319B30AB601B60AB11F4E2A4F2A83
:10149C00542AB009B109B00A0319B10A3008310451
:1014AC000319592A5A2A832AB501B50A662A01302A
:1014BC00B035B10D890B5E2A0130B4003408B50784
:1014CC00B11F692A6A2A5D2A31083302031D702A6A
:1014DC0030083202031C732A742A782A3008B202AC
:1014EC003108B33B0130B136B00C890B792A01308D
:1014FC00B502031D822A832A6A2A36080319872A11
:10150C00882A8D2AB209B309B20A0319B30A33081F
:10151C00B1003208B00008002100AD01A91F972AC4
:10152C00982A9F2AA809A909A80A0319A90AAD0192
:10153C00AD0AAB1FA22AA32AAE2AAA09AB09AA0A92
:10154C000319AB0A01302000EF006F082100AD0633
:10155C00AE01AF01280829040319B52AB62AE72AD7
:10156C00AC01AC0AC42A0130A835A90D890BBA2AE2
:10157C0001302000EF006F082100AC07A91FC72A1B
:10158C00C82AB92A0130AE35AF0D890BC92A2908F2
:10159C002B02031DD32A28082A02031CD62AD72A79
:1015AC00DC2A2808AA022908AB3B2E140130A936E4
:1015BC00A80C890BDD2A0130AC02031DE62AE72AB0
:1015CC00C82A2D080319EB2AEC2AF12AAE09AF0917
:1015DC00AE0A0319AF0A2F08A9002E08A8000800AC
:1015EC0060303200990006309F0021008C018D0183
:1015FC008E018D128E128E118D130E130E100D176F
:10160C000C1222008C018D018E0123008C018D01A6
:10161C008E01200017120F30970418081F3940381C
:10162C00980018121808F0390738980097172800F6
:10163C0017088739383897001708FC390238970093
:10164C00FF309600171521008C162C001912FF3054
:10165C0020009E0080302C009800970120009110F3
:10166C0087309F05FC309F051F15911C3E2B3F2B8F
:10167C003B2B911021008C1202303D00A7002C0056
:10168C00991723009E171E131E129E111E119D17D3
:10169C001F1219309B0014303D00A00023009E1631
:1016AC0024001512F03095059417141718303D00CE
:1016BC0094001930A4000E303C00A10024009516B3
:1016CC002100901692140B178B17080003102100A1
:1016DC00220D230D2000EE006E08031D762B772BB8
:1016EC00812B00302100A3000030A2000030A100AB
:1016FC000030A000E72B21002008A4002108A50041
:10170C002208A6002308A7001F30A736A60CA50C9C
:10171C00A40C890B8B2B24082000ED002100A217B0
:10172C00FF30A005FF30A105FF30A2050030A30556
:10173C0096302000EE02EE1FA42BA52BBF2B6E08BB
:10174C00803A973E0318AB2BAC2BAD2B772B01308B
:10175C002100A336A20CA10CA00C890BAE2B0130DE
:10176C00A40024082000EE07031DBD2BBE2BAD2BBF
:10177C00D62B20306E02031CC42BC52BD12B772B00
:10178C0001302100A035A10DA20DA30D890BC72B93
:10179C0001302000EE026E08031DD52BD62BC62B74
:1017AC006D080319DA2BDB2BE72B2100A009A1090B
:1017BC00A209A309A00A0319A10A0319A20A031971
:1017CC00A30A0800003021002005A80000302105E4
:1017DC00A90080302205AA007F302305AB002B081E
:1017EC002A0429042804031DFC2BFD2B052C003096
:1017FC00A3000030A2000030A1000030A000003097
:10180C002405A80000302505A90080302605AA0073
:10181C007F302705AB002B082A0429042804031D5C
:10182C00182C192C212C0030A7000030A6000030F9
:10183C00A5000030A400A31F242C252C3D2C003027
:10184C00A8000030A9000030AA008030AB002008AE
:10185C00A8022108A93B2208AA3B2308AB3B2B0872
:10186C00A3002A08A2002908A1002808A000A71F8D
:10187C00402C412C592C0030A8000030A90000301D
:10188C00AA008030AB002408A8022508A93B260832
:10189C00AA3B2708AB3B2B08A7002A08A60029085F
:1018AC00A5002808A4008030A3068030A7062708CE
:1018BC002302031D6B2C26082202031D6B2C25080A
:1018CC002102031D6B2C2408200203186E2C6F2C94
:1018DC00712C0310722C031408008A31F6228C31FF
:1018EC000030F200F30089317B218C318D2C511C9E
:1018FC00802C812C8D2C8931A3218C317308F9001B
:10190C007208F80089318A218C3121005110210094
:10191C0055080319922C932C7D2C873100278C3180
:10192C0021002308CC002208CB002108CA00200883
:10193C00C9004C08BA004B08B9004A08B80049085D
:10194C00B7008D310E258C3121004C08A3004B08BB
:10195C00A2004A08A1004908A0004130A700C030ED
:10196C00A6000030A5000030A4008B31E8238C3198
:10197C00031CC12CC22CCD2C22008E158D130E13E2
:10198C002100D201FF30CD000330CE00D82C220034
:10199C008E118D170E172100D201D20AFF30CD0007
:1019AC000130CE002100511CDC2CDD2CD82C8931CF
:1019BC00A3218C317308F9007208F80089318A214F
:1019CC008C3121005110873100278C3121002308E4
:1019DC00CC002208CB002108CA002008C9004C0802
:1019EC00BA004B08B9004A08B8004908B7008D3155
:1019FC000E258C3180314E208C3121005008F300A3
:101A0C004F08F20089317B218C31D82C803125286C
:101A1C0042302000DC000030DB000030DA00003007
:101A2C00D9004030C200A030C1000030C0000030EE
:101A3C00BF004130A8001030A7000030A6000030D5
:101A4C00A50021003A082000AC0021003908200034
:101A5C00AB00210038082000AA0021003708200024
:101A6C00A9008231BD228D3120002808C60027082C
:101A7C00C5002608C4002508C3008E3156268D31BA
:101A8C0020004208E0004108DF004008DE003F086B
:101A9C00DD008431F8248D3120005C082100C00069
:101AAC0020005B082100BF0020005A082100BE0066
:101ABC00200059082100BD000A30B0000030B100F0
:101ACC004008A3003F08A2003E08A1003D08A0006A
:101ADC008B316C238D3121002008BB00BC013B08ED
:101AEC00B2003C08B3008A313E228D31210030080F
:101AFC002038DB000A30B0000030B1000A30A800FA
:101B0C000030A9004008A3003F08A2003E08A10035
:101B1C003D08A0008B316C238D3121002008BB00C7
:101B2C00BC013B08AA003C08AB008A3192228D31E3
:101B3C0021002908B3002808B2008A313E228D31D9
:101B4C00210030081038DA0008002000A00020081E
:101B5C000319B12DB22DC62DF51FB52DB62DC62DE1
:101B6C007209A2007309A3007409A4007509A500E9
:101B7C00A20A0319A30A0319A40A0319A50ACE2D54
:101B8C007508A5007408A4007308A3007208A200CD
:101B9C007508740473047204031DD52DD62DDF2D26
:101BAC000030F5000030F4000030F3000030F2009B
:101BBC00552E9630A100ED2D0130F6007608A107C8
:101BCC000130A536A40CA30CA20C890BE72DFE301A
:101BDC002505031DF22DF32DE22D072E0130F60005
:101BEC007608A1070130A2070030A33D0030A43DC8
:101BFC000030A53D0130A536A40CA30CA20C890B1A
:101C0C00012EFF302505031D0C2E0D2EF42D172E45
:101C1C000130A1020130A235A30DA40DA50D890B35
:101C2C00112EA41B1A2E1B2E212E0230210203185A
:101C3C00202E212E0E2E2118242E252E2D2EFF3057
:101C4C00A205FF30A3057F30A405FF30A5050310C6
:101C5C00A10C2108F600F701F801F9011830F6354E
:101C6C00F70DF80DF90D890B352E7608A2047708BF
:101C7C00A3047808A4047908A50420080319472EA6
:101C8C00482E4D2EF51F4B2E4C2E4D2EA5172508EC
:101C9C00F5002408F4002308F3002208F2000800E1
:101CAC00200046088039D0004635D700C51F5F2E6E
:101CBC00602E612E571457080319652E662E762E4A
:101CCC00570A031D6A2E6B2E732E0030C60000308F
:101CDC00C5000030C4000030C300C517C6017E2EFD
:101CEC000030C6000030C5000030C4000030C30016
:101CFC0042088039C7004708D0064235D800C11FBA
:101D0C00882E892E8A2E5814580803198E2E8F2E41
:101D1C009F2E580A031D932E942E9C2E0030C20029
:101D2C000030C1000030C0000030BF00C117C2013C
:101D3C00A72E0030C2000030C1000030C0000030BF
:101D4C00BF004208410440043F04031DAE2EAF2ED9
:101D5C00C82E0030C6000030C5000030C400003072
:101D6C00C3008030C5047F30C6045008C700470844
:101D7C00C6044608C2004508C1004408C000430818
:101D8C00BF00FF2F5708031DCC2ECD2ED62E0030B2
:101D9C00C2000030C1000030C0000030BF00FF2F77
:101DAC005708C700C8014808CA0058084702C900AC
:101DBC00031CCA0349087F3ED10000304A3DD200C3
:101DCC004608CF004508CE004408CD004308CC009F
:101DDC000030C6000030C5000030C4000030C30025
:101DEC000030D6000030D5000030D4000030D300D5
:101DFC00D8013E2F58080319042F052F1F2F01302F
:101E0C00CC35CD0DCE0DCF0D890B062F0130C33542
:101E1C00C40DC50DC60D890B0D2FD61F162F172FF0
:101E2C00182F43140130D335D40DD50DD60D890B95
:101E3C00192F42084F02031D2D2F41084E02031D7E
:101E4C002D2F40084D02031D2D2F3F084C02031C63
:101E5C00302F312F3A2F56173F08CC024008CD3B7C
:101E6C004108CE3B4208CF3B0130C7004708D8079A
:101E7C001A305802031C432F442F002F4F084E04D6
:101E8C004D044C0403194B2F4C2F652F5314652F05
:101E9C000130C335C40DC50DC60D890B4F2FD61F90
:101EAC00582F592F5A2F43140130D335D40DD50D3B
:101EBC00D60D890B5B2FFF30D107FF30D23DC51FEC
:101ECC00682F692F4E2FD801D61F6D2F6E2F8A2F9A
:101EDC00FF305305C700FF305405C800FF305505CF
:101EEC00C9007F305605CA004A0849044804470413
:101EFC000319812F822F852FD801D80A8A2F431CD2
:101F0C00882F892F8A2F822F580803198E2F8F2FF5
:101F1C00B72F0130C3070030C43D0030C53D003041
:101F2C00C63D461C9A2F9B2FB72F4308C700440869
:101F3C00C8004508C9004608CA000130CB00CA37A2
:101F4C00C90CC80CC70CCB0BA52F4A08C6004908F6
:101F5C00C5004808C4004708C3000130D107003051
:101F6C00D23D5208803AC70080304702031DC02F73
:101F7C00FF305102031CC32FC42FD12FFF30200080
:101F8C00D1000030D2000030C6000030C500003057
:101F9C00C4000030C30020005208803AC7008030D3
:101FAC004702031DDB2F013051020318DE2FDF2FF8
:101FBC00EB2F2000D101D2010030C6000030C5004B
:101FCC000030C4000030C300D00120005108D700FD
:101FDC00571CF12FF22FF42FC517F82F7F30C700A5
:101FEC004708C5055736C6005008C7004708C60441
:041FFC00BF2E0800EC
:020000040001F9
:08000E00EC3F333FFF1FFF3FF1
:00000001FF
