:04000000803114280F
:100008007E1480312100901E0A280B281228200017
:10001800901E0F2810281228741490127E100900C0
:1000280080311628F001F101F201F301F4017E108C
:10003800200080314B2860303200990006309F0044
:1000480021008C018D018E018D128E128E118D135F
:100058000E130E100D170C1222008C018D018E014B
:1000680023008C018D018E01240015121508F0392A
:10007800023895009413141718303D009400193075
:10008800A4000E303C00A100240095160800803121
:100098001F208031023080315820803122008E1696
:1000A8008E124E2880311428F5007508240091001E
:0A00B800141C5F2860285C28080073
:020000040001F9
:08000E00EC3F333FFF1FFF3FF1
:00000001FF
