:0400000080314E28D5
:100008007E1480318B130B132100901E0C280D28B1
:1000180017282000901E1128122817288131C7217F
:100028008031200090122100101E1B281C284A280D
:100038002000101E202821284A282700131E2528C2
:100048002628422820008C1E2A282B2838280130F0
:10005800FC007C08FD0756307D02031C3428352837
:1000680042285530FD0042280130FD0246307D020D
:1000780003183F28402842284630FD00270013096E
:10008800FC007C0893058131792180318B170B178F
:100098007E10090080315028823146228031FD00CF
:1000A80033308400823085002D3086000030870090
:1000B800073082313A2280312030840000308500B8
:1000C8000D308231402280317E1020008031CB28D3
:1000D800F601F11F702871287828F009F109F00A53
:1000E8000319F10AF601F60AF31F7B287C288528F4
:1000F800F209F309F20A0319F30A0130F40074084B
:10010800F606F701F8017008710403198C288D2888
:10011800BC28F501F50A99280130F035F10D890B55
:1001280091280130F4007408F507F11F9C289D28D8
:1001380090280130F735F80D890B9E287108730255
:10014800031DA82870087202031CAB28AC28B1282C
:100158007008F2027108F33B77140130F136F00CA5
:10016800890BB2280130F502031DBB28BC289D2845
:1001780076080319C028C128C628F709F809F70A1C
:100188000319F80A7808F1007708F00008006030D1
:100198003200990003309F000B302000B500263054
:1001A800B4005D30890BD628B40BD628B50BD628F9
:1001B800003221000C108C140C168C168D120D13A5
:1001C8008D130E108E100E118E110E128E160E1328
:1001D8008E1720008C0140308D008E0122008C018A
:1001E8008D018E0123008C018D018E01803020004D
:1001F80097004430980014303D0090001830A60055
:100208001930A40015303C00A100243023009E00C2
:1002180080309D0019309B009F01223024009500FA
:10022800941314172700121620008D130E108E1029
:100238000E118E112100101690168B170B172329FB
:1002480080314E28F601F31F2A292B293229F20979
:10025800F309F20A0319F30AF601F60AF11F352920
:1002680036293B29F009F109F00A0319F10A700847
:1002780071040319402941296A29F501F50A4D2914
:100288000130F035F10D890B45290130F40074086F
:10029800F507F11F50295129442971087302031DDC
:1002A800572970087202031C5A295B295F297008B4
:1002B800F2027108F33B0130F136F00C890B60292A
:1002C8000130F502031D69296A29512976080319A5
:1002D8006E296F297429F209F309F20A0319F30A3E
:1002E8007308F1007208F00008000A30F0000030CE
:1002F800F10020003108F900FA017908F2007A08C3
:10030800F30080316C20813170082000AC000A3085
:10031800F0000030F1007D08F900FA017908F200D8
:100328007A08F30080316C20813170082000AA001F
:100338000A30F0000030F1003108F900FA017908BC
:10034800F2007A08F30081312621813170082000FB
:10035800AB000A30F0000030F1007D08F900FA0126
:100368007908F2007A08F30081312621813170087A
:100378002000A9002C08A0002B08A1002A08A20030
:100388002908A3000800003082312A228131200088
:100398008D178D130130FB007B08A4070130FB008B
:1003A8007B08A50704302402031CDB29DC29DD298E
:1003B800A401FB302502031CE229E329EB29823141
:1003C800042281312000A501813179218131F03069
:1003D800FB007B0820008E052408203E860087014C
:1003E8000108FB007B088E0424082D3E8600870147
:1003F800010882312A22813120008D178D130800CF
:1004080020000D130C3082311E22823120000D177E
:100418000D130D3082311E228231F20020000D179B
:100428000D130E3082311E22823120000D17720802
:10043800B1000800F100710882312A2282310030AF
:1004480082312A228231240011080800F000700845
:1004580024009100141C312A322A2E2A0800013463
:10046800023404340834463401340134FE001200E6
:100478001E00FE0B3B2A0034640080010131890B09
:06048800412A0034553446
:020000040001F9
:08000E008C3F333FFF1FFF3F51
:00000001FF
